:020000040800F2
:1000000000500020DD7C000825A9000829A900086F
:100010002DA9000831A9000835A90008000000003A
:1000200000000000000000000000000039A90008E6
:100030003DA900080000000041A900082D7D00082E
:100040002D7D00082D7D00082D7D00082D7D0008E8
:100050002D7D00082D7D00082D7D00082D7D0008D8
:100060002D7D00082D7D00082D7D00082D7D0008C8
:100070002D7D00082D7D00082D7D00082D7D0008B8
:100080002D7D00082D7D00082D7D00082D7D0008A8
:1000900045A900082D7D00082D7D00080D90000861
:1000A0002D7D00082D7D00082D7D00082D7D000888
:1000B0004D7E0008758100082D7D00082D7D00080B
:1000C0002D7D00082D7D00082D7D00082D7D000868
:1000D0002D7D00082D7D00082D7D00082D7D000858
:1000E000053000082D7D00082D7D0008000000006F
:1000F0000000000000000000000000000000000000
:0C01000000000000000000005FF808F1A3
:1001100010B5054C237833B9044B13B10448AFF341
:1001200000800123237010BDE401002000000000C6
:1001300004BB000808B5034B1BB103490348AFF3E8
:10014000008008BD00000000E801002004BB00089A
:1001500081F0004102E000BF83F0004330B54FEA78
:1001600041044FEA430594EA050F08BF90EA020FE5
:100170001FBF54EA000C55EA020C7FEA645C7FEA78
:10018000655C00F0E2804FEA5454D4EB5555B8BF9B
:100190006D420CDD2C4480EA020281EA030382EA0C
:1001A000000083EA010180EA020281EA0303362D9E
:1001B00088BF30BD11F0004F4FEA01314FF4801C71
:1001C0004CEA113102D0404261EB410113F0004F83
:1001D0004FEA03334CEA133302D0524263EB43033A
:1001E00094EA050F00F0A780A4F10104D5F1200ED8
:1001F0000DDB02FA0EFC22FA05F2801841F1000133
:1002000003FA0EF2801843FA05F359410EE0A5F106
:1002100020050EF1200E012A03FA0EFC28BF4CF037
:10022000020C43FA05F3C01851EBE37101F00045ED
:1002300007D54FF0000EDCF1000C7EEB00006EEBFA
:100240000101B1F5801F1BD3B1F5001F0CD3490884
:100250005FEA30004FEA3C0C04F101044FEA4452DB
:1002600012F5800F80F09A80BCF1004F08BF5FEA62
:10027000500C50F1000041EB045141EA050130BD42
:100280005FEA4C0C404141EB010111F4801FA4F1E5
:100290000104E9D191F0000F04BF01460020B1FA3A
:1002A00081F308BF2033A3F10B03B3F120020CDA72
:1002B0000C3208DD02F1140CC2F10C0201FA0CF050
:1002C00021FA02F10CE002F11402D8BFC2F1200CB5
:1002D00001FA02F120FA0CFCDCBF41EA0C0190406B
:1002E000E41AA2BF01EB0451294330BD6FEA0404B4
:1002F0001F3C1CDA0C340EDC04F11404C4F120029F
:1003000020FA04F001FA02F340EA030021FA04F3B0
:1003100045EA030130BDC4F10C04C4F1200220FA07
:1003200002F001FA04F340EA0300294630BD21FA45
:1003300004F0294630BD94F0000F83F4801306BF0B
:1003400081F480110134013D4EE77FEA645C18BFFF
:100350007FEA655C29D094EA050F08BF90EA020F96
:1003600005D054EA000C04BF1946104630BD91EA8E
:10037000030F1EBF0021002030BD5FEA545C05D191
:100380004000494128BF41F0004130BD14F58004D0
:100390003CBF01F5801130BD01F0004545F0FE4144
:1003A00041F470014FF0000030BD7FEA645C1ABF79
:1003B000194610467FEA655C1CBF0B46024650EAB0
:1003C000013406BF52EA033591EA030F41F40021DC
:1003D00030BD00BF90F0000F04BF0021704730B562
:1003E0004FF4806404F132044FF000054FF0000137
:1003F00050E700BF90F0000F04BF0021704730B5F8
:100400004FF4806404F1320410F0004548BF4042CC
:100410004FF000013EE700BF42004FEAE2014FEA21
:1004200031014FEA02701FBF12F07F4393F07F4FFC
:1004300081F06051704792F0000F14BF93F07F4F2E
:10044000704730B54FF4607401F0004521F0004171
:1004500020E700BF50EA010208BF704730B54FF0F7
:1004600000050AE050EA010208BF704730B511F0FC
:10047000004502D5404261EB41014FF4806404F134
:1004800032045FEA915C3FF4DCAE4FF003025FEAB6
:10049000DC0C18BF03325FEADC0C18BF033202EB3E
:1004A000DC02C2F1200300FA03FC20FA02F001FA98
:1004B00003FE40EA0E0021FA02F11444C1E600BF37
:1004C00070B54FF0FF0C4CF4E06C1CEA11541DBFEA
:1004D0001CEA135594EA0C0F95EA0C0F00F0DEF8B5
:1004E0002C4481EA030621EA4C5123EA4C5350EA9A
:1004F000013518BF52EA033541F4801143F48013EB
:1005000038D0A0FB02CE4FF00005E1FB02E506F07B
:100510000042E0FB03E54FF00006E1FB03569CF0D0
:10052000000F18BF4EF0010EA4F1FF04B6F5007FD6
:1005300064F5407404D25FEA4E0E6D4146EB060648
:1005400042EAC62141EA55514FEAC52040EA5E50D1
:100550004FEACE2EB4F1FD0C88BFBCF5E06F1ED87B
:10056000BEF1004F08BF5FEA500E50F1000041EBB2
:10057000045170BD06F0004646EA010140EA02005F
:1005800081EA0301B4EB5C04C2BFD4EB0C0541EA81
:10059000045170BD41F480114FF0000E013C00F396
:1005A000AB8014F1360FDEBF002001F0004170BDBA
:1005B000C4F10004203C35DA0C341BDC04F11404D3
:1005C000C4F1200500FA05F320FA04F001FA05F25F
:1005D00040EA020001F0004221F0004110EBD3702C
:1005E00021FA04F642EB06015EEA430E08BF20EA58
:1005F000D37070BDC4F10C04C4F1200500FA04F3FB
:1006000020FA05F001FA04F240EA020001F000418C
:1006100010EBD37041F100015EEA430E08BF20EAFF
:10062000D37070BDC4F1200500FA05F24EEA020E47
:1006300020FA04F301FA05F243EA020321FA04F076
:1006400001F0004121FA04F220EA020000EBD3702D
:100650005EEA430E08BF20EAD37070BD94F0000F2D
:100660000FD101F00046400041EB010111F4801F61
:1006700008BF013CF7D041EA060195F0000F18BF12
:10068000704703F00046520043EB030313F4801F4E
:1006900008BF013DF7D043EA0603704794EA0C0F08
:1006A0000CEA135518BF95EA0C0F0CD050EA41061E
:1006B00018BF52EA4306D1D181EA030101F000419B
:1006C0004FF0000070BD50EA410606BF10461946C3
:1006D00052EA430619D094EA0C0F02D150EA0136CF
:1006E00013D195EA0C0F05D152EA03361CBF104610
:1006F00019460AD181EA030101F0004141F0FE41AF
:1007000041F470014FF0000070BD41F0FE4141F432
:10071000780170BD70B54FF0FF0C4CF4E06C1CEA32
:1007200011541DBF1CEA135594EA0C0F95EA0C0FE7
:1007300000F0A7F8A4EB050481EA030E52EA0335A2
:100740004FEA013100F088804FEA03334FF08055C3
:1007500045EA131343EA12634FEA022245EA1115F0
:1007600045EA10654FEA00260EF000419D4208BFA1
:10077000964244F1FD0404F5407402D25B084FEA4E
:100780003202B61A65EB03055B084FEA32024FF4FA
:1007900080104FF4002CB6EB020E75EB030E22BF57
:1007A000B61A754640EA0C005B084FEA3202B6EB17
:1007B000020E75EB030E22BFB61A754640EA5C00C6
:1007C0005B084FEA3202B6EB020E75EB030E22BF56
:1007D000B61A754640EA9C005B084FEA3202B6EB57
:1007E000020E75EB030E22BFB61A754640EADC0016
:1007F00055EA060E18D04FEA051545EA16754FEA78
:1008000006164FEAC30343EA52734FEAC2025FEA95
:100810001C1CC0D111F4801F0BD141EA00014FF024
:1008200000004FF0004CB6E711F4801F04BF0143F5
:100830000020B4F1FD0C88BFBCF5E06F3FF6AFAE11
:10084000B5EB030C04BFB6EB020C5FEA500C50F1A1
:10085000000041EB045170BD0EF0004E4EEA113124
:1008600014EB5C04C2BFD4EB0C0541EA045170BD2B
:1008700041F480114FF0000E013C90E645EA060E6F
:100880008DE60CEA135594EA0C0F08BF95EA0C0F9D
:100890003FF43BAF94EA0C0F0AD150EA01347FF4E5
:1008A00034AF95EA0C0F7FF425AF104619462CE7BC
:1008B00095EA0C0F06D152EA03353FF4FDAE10461F
:1008C000194622E750EA410618BF52EA43067FF470
:1008D000C5AE50EA41047FF40DAF52EA43057FF400
:1008E000EBAE12E74FF0FF3C06E000BF4FF0010C0B
:1008F00002E000BF4FF0010C4DF804CD4FEA410C6F
:100900007FEA6C5C4FEA430C18BF7FEA6C5C1BD03B
:1009100001B050EA410C0CBF52EA430C91EA030FBC
:1009200002BF90EA020F0020704710F1000F91EA19
:10093000030F58BF994208BF90422CBFD8176FEAE7
:10094000E37040F0010070474FEA410C7FEA6C5CB5
:1009500002D150EA013C07D14FEA430C7FEA6C5CBC
:10096000D6D152EA033CD3D05DF8040B704700BFE8
:100970008446104662468C461946634600E000BF36
:1009800001B5FFF7B7FF002848BF10F1000F01BD08
:100990004DF808EDFFF7F4FF0CBF012000205DF8D3
:1009A00008FB00BF4DF808EDFFF7EAFF34BF012058
:1009B00000205DF808FB00BF4DF808EDFFF7E0FFF1
:1009C00094BF012000205DF808FB00BF4DF808ED42
:1009D000FFF7CEFF94BF012000205DF808FB00BFA9
:1009E0004DF808EDFFF7C4FF34BF012000205DF88B
:1009F00008FB00BF4FEA4102B2F1E04324BFB3F568
:100A0000001CDCF1FE5C0DD901F0004C4FEAC00285
:100A10004CEA5070B2F1004F40EB830008BF20F069
:100A20000100704711F0804F21D113F13872BCBF23
:100A300001F00040704741F480114FEA5252C2F178
:100A40001802C2F1200C10FA0CF320FA02F018BFC1
:100A500040F001004FEAC1234FEAD32303FA0CFC14
:100A600040EA0C0023FA02F34FEA4303CCE77FEAA3
:100A7000625307D150EA01331EBF4FF0FE4040F4ED
:100A80004000704701F0004040F0FE4040F400009C
:100A9000704700BF80F0004002E000BF81F00041DD
:100AA00042001FBF5FEA410392EA030F7FEA226C14
:100AB0007FEA236C6AD04FEA1262D2EB1363C1BFA4
:100AC000D218414048404140B8BF5B42192B88BF13
:100AD000704710F0004F40F4000020F07F4018BF36
:100AE000404211F0004F41F4000121F07F4118BF56
:100AF000494292EA030F3FD0A2F1010241FA03FCFE
:100B000010EB0C00C3F1200301FA03F100F00043E5
:100B100002D5494260EB4000B0F5000F13D3B0F1AD
:100B2000807F06D340084FEA310102F10102FE2A1C
:100B300051D2B1F1004F40EBC25008BF20F001008C
:100B400040EA03007047490040EB000010F4000F3A
:100B5000A2F10102EDD1B0FA80FCACF1080CB2EBCD
:100B60000C0200FA0CF0AABF00EBC250524218432C
:100B7000BCBFD0401843704792F0000F81F40001D1
:100B800006BF80F400000132013BB5E74FEA4103A4
:100B90007FEA226C18BF7FEA236C21D092EA030F10
:100BA00004D092F0000F08BF0846704790EA010F8A
:100BB0001CBF0020704712F07F4F04D1400028BFB7
:100BC00040F00040704712F100723CBF00F5000099
:100BD000704700F0004343F0FE4040F400007047CF
:100BE0007FEA226216BF08467FEA2363014642027B
:100BF00006BF5FEA412390EA010F40F4800070478E
:100C00004FF0000304E000BF10F0004348BF404233
:100C10005FEA000C08BF704743F0964301464FF06F
:100C200000001CE050EA010208BF70474FF00003CB
:100C30000AE000BF50EA010208BF704711F000430C
:100C400002D5404261EB41015FEA010C02BF8446DC
:100C50000146002043F0B64308BFA3F18053A3F53B
:100C60000003BCFA8CF2083AA3EBC25310DB01FA82
:100C700002FC634400FA02FCC2F12002BCF1004F06
:100C800020FA02F243EB020008BF20F00100704797
:100C900002F1200201FA02FCC2F1200250EA4C00EB
:100CA00021FA02F243EB020008BF20EADC70704731
:100CB0004FF0FF0C1CEAD0521EBF1CEAD15392EA3F
:100CC0000C0F93EA0C0F6FD01A4480EA010C40021B
:100CD00018BF5FEA41211ED04FF0006343EA501075
:100CE00043EA5111A0FB01310CF00040B1F5000FB7
:100CF0003EBF490041EAD3715B0040EA010062F166
:100D00007F02FD2A1DD8B3F1004F40EBC25008BF4F
:100D100020F00100704790F0000F0CF0004C08BF6D
:100D200049024CEA502040EA51207F3AC2BFD2F13A
:100D3000FF0340EAC250704740F400004FF0000348
:100D4000013A5DDC12F1190FDCBF00F00040704782
:100D5000C2F10002410021FA02F1C2F1200200FAC0
:100D600002FC5FEA310040F1000053EA4C0308BF87
:100D700020EADC70704792F0000F00F0004C02BFD8
:100D8000400010F4000F013AF9D040EA0C0093F053
:100D9000000F01F0004C02BF490011F4000F013BAD
:100DA000F9D041EA0C018FE70CEAD15392EA0C0F1B
:100DB00018BF93EA0C0F0AD030F0004C18BF31F086
:100DC000004CD8D180EA010000F00040704790F05C
:100DD000000F17BF90F0004F084691F0000F91F000
:100DE000004F14D092EA0C0F01D142020FD193EAC6
:100DF0000C0F03D14B0218BF084608D180EA01004E
:100E000000F0004040F0FE4040F40000704740F029
:100E1000FE4040F4400070474FF0FF0C1CEAD052F7
:100E20001EBF1CEAD15392EA0C0F93EA0C0F69D053
:100E3000A2EB030280EA010C49024FEA402037D0BE
:100E40004FF0805343EA111143EA10130CF00040B5
:100E50008B4238BF5B0042F17D024FF4000C8B42A5
:100E600024BF5B1A40EA0C00B3EB510F24BFA3EB85
:100E7000510340EA5C00B3EB910F24BFA3EB910355
:100E800040EA9C00B3EBD10F24BFA3EBD10340EAAF
:100E9000DC001B0118BF5FEA1C1CE0D1FD2A3FF6F5
:100EA00050AF8B4240EBC25008BF20F001007047AA
:100EB0000CF0004C4CEA50207F32C2BFD2F1FF034D
:100EC00040EAC250704740F400004FF00003013A7E
:100ED00037E792F0000F00F0004C02BF400010F422
:100EE000000F013AF9D040EA0C0093F0000F01F036
:100EF000004C02BF490011F4000F013BF9D041EA58
:100F00000C0195E70CEAD15392EA0C0F08D142028A
:100F10007FF47DAF93EA0C0F7FF470AF084676E75D
:100F200093EA0C0F04D14B023FF44CAF08466EE736
:100F300030F0004C18BF31F0004CCAD130F0004204
:100F40007FF45CAF31F000437FF43CAF5FE700BF5C
:100F50004FF0FF3C06E000BF4FF0010C02E000BF85
:100F60004FF0010C4DF804CD4FEA40024FEA410327
:100F70007FEA226C18BF7FEA236C11D001B052EADD
:100F8000530C18BF90EA010F58BFB2EB030088BFA3
:100F9000C81738BF6FEAE17018BF40F00100704712
:100FA0007FEA226C02D15FEA402C05D17FEA236CF4
:100FB000E4D15FEA412CE1D05DF8040B704700BF3B
:100FC000844608466146FFE70FB5FFF7C9FF0028D2
:100FD00048BF10F1000F0FBD4DF808EDFFF7F4FF0B
:100FE0000CBF012000205DF808FB00BF4DF808EDA4
:100FF000FFF7EAFF34BF012000205DF808FB00BFC7
:101000004DF808EDFFF7E0FF94BF012000205DF8E8
:1010100008FB00BF4DF808EDFFF7D2FF94BF012099
:1010200000205DF808FB00BF4DF808EDFFF7C8FF92
:1010300034BF012000205DF808FB00BF4FEA4002EA
:101040004FEA41037FEA226C02D15FEA402C08D1CB
:101050007FEA236C02D15FEA412C02D14FF00000FD
:1010600070474FF0010070474FEA4002B2F1FE4F67
:101070000FD34FF09E03B3EB12620DD94FEA00235A
:1010800043F0004310F0004F23FA02F018BF404233
:1010900070474FF00000704712F1610F01D142021A
:1010A00005D110F0004008BF6FF0004070474FF0CE
:1010B0000000704742000ED2B2F1FE4F0BD34FF04A
:1010C0009E03B3EB126209D44FEA002343F00043BE
:1010D00023FA02F070474FF00000704712F1610FE1
:1010E00001D1420202D14FF0FF3070474FF00000B3
:1010F000704700BF40F0BF60024B40F40030D86042
:10110000704700BF00ED00E0C3785BB901210378B0
:1011100014485A0903F01F03203201FA03F340F880
:1011200022307047104B0F21DA6870B4D24301248B
:1011300085784378C2F30222C2F1040621FA02F252
:101140002A40B34001781343064A1B0101F01F05F2
:101150005018DBB2AC4080F80033490942F8214016
:1011600070BC704700E100E000ED00E0837933B32C
:1011700030B404681B4BE1431D6802790D401D60CB
:101180005D6802F180422940596002F5823215689B
:1011900041792C43146002689C68D04304409C60F1
:1011A000DC68102900EA0400D86013D030BC01F1DB
:1011B000804303F5823319680A431A607047037944
:1011C000016803F1804303F582331A6822EA0102C1
:1011D0001A607047996830BC11439960D9680A4316
:1011E000DA60704700040140054B1A685B690340F0
:1011F00004D0024214BF01200020704718467047F7
:1012000000040140014B5861704700BF00040140D9
:10121000024B0349034A59605A607047002002405C
:1012200023016745AB89EFCD3849CB6813F0010F37
:10123000CB6803D15B0738D502207047DB072CD47D
:101240004FF43023314AD168490705D50220013BCC
:10125000002B08BF05207047D268D2061AD4012B94
:1012600021D02A4A136943F00203136150611369C4
:1012700043F040031361D36813F0010FD36819D111
:101280005B073BD5022041F6FD71204A13690B40F4
:10129000136170470320013BDAE71D4BCA68D20790
:1012A000D0D5013BFAD105207047CB68D906D8D5F7
:1012B00003207047D90709D4D3685B07E2D4D36809
:1012C00013F0100F14BF03200420DCE7104BD1688B
:1012D000C90708D4D168013B490708D50220002B73
:1012E00008BF0520CFE7013BF1D10520CBE7D2684D
:1012F00012F0100F14BF03200420F0E7D36813F09E
:10130000100F0CBF04200320BDE700BF00200240E7
:10131000FFFF0A0010B4394CE36813F0010FE368D3
:1013200004D15B0738D5022010BC7047DB0729D4F5
:101330004FF40053314AD468640705D50220013BBD
:10134000002B08BF0520EFE7D268D20617D4012B87
:101350001FD02A4A136943F0010313610180D36847
:1013600013F0010FD3681CD15B073FD5022041F673
:10137000FE71224A10BC13690B40136170470320B1
:10138000013BDDE741F6FF73E268D207D2D5013BAE
:10139000FAD1052010BC7047E368DC06D9D50320DC
:1013A000C2E7D90709D4D3685B07DFD4D36813F049
:1013B000100F14BF03200420D9E741F6FF73D16852
:1013C000CC0708D4D168013B490708D50220002B7F
:1013D00008BF0520CBE7013BF1D10520C7E7D26864
:1013E00012F0100F14BF03200420F0E7D36813F0AD
:1013F000100F0CBF04200320B9E700BF00200240FB
:1014000030B4CD78EB0648BF8B7805F00F0448BFA9
:101410001C430B8813F0FF0F32D0482D026800F0F8
:101420008180282D00F0B680D90744BF22F00F023A
:101430002243990744BF22F0F00242EA04125907FE
:1014400044BF22F4706242EA0422190744BF22F426
:10145000704242EA0432D90644BF22F4702242EAC2
:101460000442990644BF22F4700242EA045259062B
:1014700044BF22F0706242EA0462190671D402602D
:10148000FF2B30D9282D42682FD0482D6CD0D9059C
:1014900044BF22F00F0222439D0544BF22F0F00218
:1014A00042EA0412590544BF22F4706242EA04225F
:1014B0001D0544BF22F4704242EA0432D90444BFFD
:1014C00022F4702242EA04429D0444BF22F47002D6
:1014D00042EA0452590444BF22F0706242EA0462B4
:1014E0001D043BD4426030BC7047D90500F1D68062
:1014F0009D0500F1CB80590500F1C0801D0500F16C
:10150000B580D90400F1AA809D0400F19F805904A0
:1015100000F194801B04E5D54FF4004364F31F727F
:101520004361DFE7D90700F1E380990700F1D98033
:10153000590700F1CF80190700F1C580D90600F1E5
:10154000BB80990600F1B180590600F1D7801906D9
:1015500095D5802164F31F72016190E764F31F72D7
:10156000C0E764F31F728AE7D90548D49D053ED4CD
:10157000590534D41D052AD4D9044FD49D0445D42B
:10158000590453D41D04ADD54FF4004364F31F72C6
:101590000361A7E7D90700F1E280990700F1D8803D
:1015A000590700F1CE80190700F1C480D90600F177
:1015B000BA80990600F1B080590600F1A68019069C
:1015C0007FF55DAF802164F31F72416157E74FF4EF
:1015D000006122F4704242EA04320161CCE74FF428
:1015E000806122F4706242EA04220161C2E74FF492
:1015F000007122F0F00242EA04120161B8E74FF4F0
:10160000807122F00F0222430161AFE74FF40051D5
:1016100022F4700242EA04520161B1E74FF48051B2
:1016200022F4702242EA04420161A7E74FF48041AC
:1016300022F0706242EA04620161A3E74FF4804144
:1016400022F0706242EA0462416163E74FF40051A4
:1016500022F4700242EA0452416158E74FF480518B
:1016600022F4702242EA044241614DE74FF40061E6
:1016700022F4704242EA0432416142E74FF4806151
:1016800022F4706242EA0422416137E74FF40071AC
:1016900022F0F00242EA041241612CE74FF480711B
:1016A00022F00F022243416122E7202122F470023E
:1016B00042EA0452016147E7102122F4702242EA13
:1016C000044201613DE7082122F4704242EA0432FB
:1016D000016133E7042122F4706242EA04220161CD
:1016E00029E7022122F0F00242EA041201611FE719
:1016F000012122F00F022243016116E7402122F06E
:10170000706242EA0462016121E7402122F07062C6
:1017100042EA0462416152E7202122F4700242EA67
:101720000452416148E7102122F4702242EA044247
:1017300041613EE7082122F4704242EA04324161ED
:1017400034E7042122F4706242EA042241612AE76C
:10175000022122F0F00242EA0412416120E7012155
:1017600022F00F022243416117E700BF806880B278
:10177000704700BFC06880B2704700BF016170470A
:10178000416170470AB9416170470161704700BF0C
:101790000028194B00F44012B4BFDB695B68B2F556
:1017A000401F30B484B21ED0C20213D50322C0F34E
:1017B0000345AA4023EA020343F0706319B1420DC6
:1017C0001201944023430C4A0028B4BFD3615360F4
:1017D00030BC7047420D120104FA02F223EA020300
:1017E00043F07063EAE7044D23F070636A6822F007
:1017F00070626A60E2E700BF0000014010B40F248D
:1018000001F0FC0303F1804303F5803301F0030191
:101810009A6889008C4022EA04029A609A6800FA69
:1018200001F11143996010BC704700BF014B186073
:10183000704700BFD8004242044A936919B923EAAD
:10184000000090617047184390617047001002409B
:10185000044AD36919B923EA0000D06170471843DC
:10186000D061704700100240274A038890429BB223
:1018700012D002F5006290420ED0B0F1804F0BD032
:10188000A2F59832904207D002F58062904203D0D0
:1018900002F58062904203D14A8823F0700313431B
:1018A0001A4A904227D002F58062904223D070B449
:1018B00023F44073CE888D880C889BB202F58C325D
:1018C000334390420380858504850ED0104B9842A7
:1018D0000BD003F54063984207D003F5806398422C
:1018E00003D003F58063984201D10B7A038601236C
:1018F00070BC8382704703808B8883850B88038547
:1019000001238382704700BF002C0140001000407B
:1019100000340140028CF0B422F001021204120CD7
:101920000D890284038C4E888488028B23F0020385
:1019300035431B0422F07302184E1B0C12040F884F
:101940002B43120CB0429BB2A4B242EA070215D05C
:10195000134DA84212D005F54065A8420ED005F5FA
:101960008065A8420AD005F58065A84206D0C988DE
:1019700084800283F0BC8186038470474E898D8900
:10198000CF8923F00803334324F440748E883D4309
:1019900023F004032C433343A4B2E8E7002C0140B6
:1019A0000034014000234FF6FF720360426003726F
:1019B000704700BF038829B923F001031B041B0CE7
:1019C000038070479BB243F001030380704700BF60
:1019D000B0F8443021B9C3F30E03A0F84430704787
:1019E0006FEA43436FEA53439BB2A0F84430704719
:1019F00083899BB21AB923EA010181817047194397
:101A000081817047038B23F008031B041B0C1943CF
:101A100001837047C94389B2018270472DE9F041C3
:101A2000082710254FF0030882B0144C02AE384648
:101A30000121FFF701FF26F8045D314620468DF8AD
:101A400007508DF80680FFF7DBFC38460121FFF7D1
:101A5000F3FE314620468DF806808DF80750ADF82C
:101A60000470FFF7CDFC29462046FFF789FE394672
:101A70002046FFF785FE02B0BDE8F081000C014072
:101A800010B50748FFF776FEC0F300140448FFF7CF
:101A900071FE030748BF44F00204204610BD00BF9A
:101AA000000C014010B5054C10212046FFF768FEE0
:101AB0002046BDE810400821FFF762BE000C01403F
:101AC00038B50F4D6B783BB9044630B142060DD4A2
:101AD000230610D400232B7338BD10210948FFF7CB
:101AE0004FFE08210748FFF74BFEF3E7102105489A
:101AF000FFF744FEECE708210248FFF73FFEE9E765
:101B0000DC0F0020000C014038B5124C2378022B6A
:101B100004D0054604F06EF8637803B138BD35B1E2
:101B20006A060DD42B0610D40023237338BD102170
:101B30000948FFF725FE08210748FFF721FEF3E7D4
:101B400010210548FFF71AFEECE708210248FFF7CD
:101B500015FEE9E7DC0F0020000C01400B4B0C499F
:101B600010B45C1C091B03F58060CA5C03F8012FEC
:101B70009842FAD123780A2B06D04FF48062FF21D5
:101B8000044810BC08F013BF10BC7047530B002072
:101B900001FC0108540B0020014B185C704700BF8A
:101BA000540B0020014B1954704700BF540B002008
:101BB0002DE9F0410646002A40D00023214F441E63
:101BC0003C448D18002B4FEAD31318BF012311F8A2
:101BD000010B0344A942DBB204F8010FF2D1164411
:101BE0001948BB55FFF720FB042801D0BDE8F08160
:101BF0004FF6FF77154D144CDFF85480AE1E35F8C4
:101C0000041CB94202D02046FFF784FB3188A01C97
:101C1000B94204F1040409D0FFF77CFB444505F107
:101C2000040506F10406EAD1BDE8F081444505F15A
:101C3000040506F10406E2D1BDE8F0811346014F28
:101C4000CEE700BF540B002000FC0108580B002019
:101C500000000208F0B4CAB100230E4F4D1E3D44EF
:101C60008618002B4FEAD31318BF012315F8014F34
:101C700000F8014B2344B042DBB2F2D11144785C4E
:101C8000F0BCC01AB0FA80F0400970471346014F0B
:101C9000F5E700BF540B002008B500214422074897
:101CA00008F085FE0649002005F0EEFB00B108BDF6
:101CB0000720BDE8084004F089BA00BF540F002097
:101CC0007C0F00200149024807F094BB001000205F
:101CD000700F00202DE9F04F0646DFF89482402275
:101CE00000219DB0404608F062FE9E4B03CB1C884D
:101CF0009A78C8F80100C8F80510A8F8094088F8D3
:101D00000B203378242B00F01C81102300220C932D
:101D100004230A920B930027B55C8DF853203C46B0
:101D2000099707970897DFF84C92002D00F0E7809D
:101D3000A5F14103192B00F29382531C0DF15301BD
:101D400015AA30468DF8533001F08EFF002800F0C0
:101D50008C82DDF854B05846FFF7ACF95FFA80FA90
:101D60005046FEF751FF01465846FEF797FE49469A
:101D7000FEF79EFF08F0D8FE472D82B228D04D2DE9
:101D800040F08B80002A40F0B682BAF11E0F00F2BC
:101D900008810123744A03FA0AF3134240F0988041
:101DA00013F4607F40F0BD8013F0380F00F0F9802D
:101DB000BAF1040F00F07582BAF1050F00F06A82E3
:101DC000BAF1030F00F0F4814FF480520C238AE043
:101DD000BAF15E0F00F2E580DFE81AF0CE00CE0027
:101DE000CE00CE004C01E300E300E300E300E3009B
:101DF0003801E300E300E300E300E300E300150142
:101E00001501150132013201E300E300E300E300B4
:101E1000E300E3003801E3003801E300E300E300FE
:101E2000E300E300E300E300CE00E300EF00E300A3
:101E3000E3001B01E300E300E300E300E3001B0118
:101E4000E300E300E3004C012C012C012C012C01E8
:101E50002C012C01E300FD00E300E300E300E300BC
:101E6000E300E300E300E300E300E300E300E3005A
:101E7000E300E300E300E300E300E3000101E3002B
:101E8000E300E300E300E300E300E300E300E3003A
:101E90000601060138010F010F01463D142D00F225
:101EA0008080DFE815F029017E007E001701200107
:101EB000F70039017E003E017E0046017E004B01A5
:101EC000500156017E007E007E0063016D01050118
:101ED000BAF1000F6AD0BAF1010F3FD04FF400629F
:101EE0000B2388F808A044FA03F3D90700F1FD8119
:101EF00014439DF85320B55C002D7FF419AF079B68
:101F000023B1089B002B08BF02230893BA0640F1B7
:101F10006181164BD8F820209A4240F35B811B2345
:101F200040E0BAF1080F00F03581BAF1090F00F076
:101F3000A181BAF1070F00F034814FF400520D2354
:101F4000D1E7012388F801300A93112300220C9372
:101F5000052388F802200B930322DCE64FF400628D
:101F60000B23C0E7540F0020070000408096980024
:101F7000980F00200000C842089B002B40F0C98247
:101F8000BAF1260F88F801A040F0B181A2F1140344
:101F90009BB21E2B05D8C64921FA03F3DD0700F1D9
:101FA0000E81142318461DB0BDE8F08F03234FF4B3
:101FB000006288F808300B2395E70721002A40F0DB
:101FC0009A8144FA01F3D80700F18F8101238B40F5
:101FD0001C43A4B28DE7002AE3D10A21F1E7502384
:101FE000012188F80130E9E7002A40F07581AAF163
:101FF0005A0A88F804A00321E3E7CAF15E0A88F8C8
:1020000002A00521DAE7AAF1110A88F805A0022149
:10201000D4E7089B002B40F07C82BAF1310F00F02E
:1020200073810A2ABDD1012388F8063003230821D1
:102030000893C6E7AAF1360A88F807A00921BDE788
:10204000CAF1150A88F803A00621B7E7002A40F074
:102050003981089B002B40F05C82BAF11C0F88F894
:1020600000A000F04E81BAF11E0F00F04A8101235A
:10207000089309E0BAF11C0F88F800A000F0018174
:10208000BAF11E0F00F0FD80BAF15C0F00F0F9808C
:10209000002193E7099B082543F0040309930323D8
:1020A000C8F818B047FA03F3DB070ED42F4320E734
:1020B000079BC8F83CB043F0040307930C2347FA8E
:1020C00003F3DB074FF48055F0D5192318461DB0F4
:1020D000BDE8F08F099BC8F810B043F001030993E5
:1020E00002250123DEE7099BC8F814B043F0020380
:1020F000099304250223D5E701250023C8F80CB075
:1021000047FA03F3DA07E0D458460021FEF76EFFE2
:102110000028CBD0042345E788F81CA01025042311
:10212000C0E75846FEF7A0FF2025C8F82000052389
:10213000E6E7C8F824B040250623E1E7C8F828B050
:1021400080250723AEE7C8F82CB04FF4807508232C
:10215000D6E758495846FEF767FF002840F0DF8170
:1021600088F830A04FF400750923C9E7079BC8F829
:1021700034B043F0010307934FF480650A2391E7DD
:10218000079BC8F838B043F0020307934FF400658B
:102190000B2387E740234FF4005288F809300D23C2
:1021A000A1E680234FF4005288F809300D239AE607
:1021B00010234FF4805288F80A300C2393E63E4BEC
:1021C0000121A3FB0223DB08763B88F801300223C0
:1021D0000893F6E60A9B002B40F08F8098F80230B7
:1021E000012B00F00181354B5B7833B9FD0700F11D
:1021F000AC80324B1B69C8F80C30F80503D42F4B68
:10220000DB68C8F82C3098F80090B9F1040F00F0A2
:10221000BB8098F80530002B00F0AD80012B40F01A
:10222000A180002502261193052310950F960E9389
:1022300098F80330012B00F0AC80089B032B00F0D2
:10224000C880DFF87CA016AB9AE8070083E8070097
:10225000A2056DD598F8070006285DD91D23A1E6D3
:10226000012318461DB0BDE8F08F022318461DB0AB
:10227000BDE8F08F00234FF4005288F809300D2399
:1022800031E612B10A2A7FF48CAE504488F800007F
:10229000002196E600234FF4805288F80A300C2380
:1022A00021E620234FF4805288F80A300C231AE6E6
:1022B0000104104000007F43CDCCCCCC540F002053
:1022C0007C0F0020BAF11C0F88F800A0DAD0BAF118
:1022D0001E0F7FF4D9AED5E70A2A7FF462AEBAF1B9
:1022E0005A0F3FF45EAE04216BE615235AE6022333
:1022F0000121089362E6172354E6FB0725D4162331
:1023000050E601230893C0E79DF82030082188F8A3
:1023100006300323089354E6AC4B9B79834207D0E5
:1023200016A905F0B1F8002800F0F18098F80090A7
:10233000B9F10A0F00F0C180B9F15C0F64D1079BBD
:10234000002B40F00C811A232CE698F80330012B67
:102350007FF453AFD8F80C009D49FEF7A9FCC8F8EC
:102360000C004AE70623022501260E930023109550
:102370000F9611935CE71E460F93032301250E93DE
:1023800002231095119353E7790600F1C4801C23B2
:1023900008E6079BDA0707D5D8F834008C49FEF722
:1023A00087FC079BC8F83400980707D5D8F8380091
:1023B0008749FEF77DFC079BC8F8380059077FF571
:1023C0003CAFD8F83C008249FEF772FCC8F83C00EC
:1023D00033E798F80630012B7FF433AF079B042BCB
:1023E0003FF42FAF2523DDE5089B022B7FF405AFDB
:1023F00098F80130502B3FF400AF002B3FF4FDAEB6
:10240000FE077FF57CAFF8E6089B032B2ED0079BD9
:1024100063B398F80430002B00F0E080B9F1350F79
:10242000079B00F08180DB0740F17F81674BD8F884
:102430003410D869FEF734FBC8F83400079B9807BE
:1024400040F16E81614BD8F83810186AFEF728FB0E
:10245000C8F83800079B590740F1F4805B4BD8F867
:102460003C10586AFEF71CFBC8F83C00B9F11E0F7F
:1024700000F0ED80B9F1350F6AD0B9F11C0F00F012
:10248000598198F80190B9F1500F00F02B81002389
:102490000D93089B022B00F000810A9A002A40D07D
:1024A00027F02107BFB2089B13B127F4E057BFB252
:1024B000002F00F04781242374E5079B002B3FF495
:1024C00042AF17F0500F3FF462AFD8F82400FEF788
:1024D000F1FDC0B206283FF6C1AE98F81C30142BAF
:1024E00005D0022B7FF45DAD3B063FF55AAD27F0DA
:1024F0005007BFB2002800F09D840138C3B20D938D
:1025000034490D9804F0C0FF002840F026840723CA
:1025100048E5182346E527F04007BFB279E62623B1
:1025200040E52D4B1F40BEE7DA0704D4274BDB699B
:10253000C8F83430079B980704D4244B1B6AC8F8AA
:102540003830079B590703D4204B5B6AC8F83C30EE
:1025500098F80190B9F1010F99D91E2322E5D90706
:1025600000F18F80194B5B6BC8F83430079B9A07DA
:102570007BD4164B9B6BC8F83830079BC3F38003A2
:10258000C3B1124B1899586AFEF788FAD8F83C1074
:10259000FEF784FA0D4B196CFEF780FA002398F8C9
:1025A00001900D93C8F83C00B9F1500F7FF471AF62
:1025B0001F23F7E4054A0D93D26BC8F83C2098F826
:1025C0000190B9F1500F7FF464AFF1E7540F002090
:1025D0003333CB41A80F0020DEFCFFFFB9F1350FEC
:1025E000079BA1D0DA0740F1BD80D8F834101698C7
:1025F000FEF756FA5E4B596BFEF752FAC8F83400F4
:10260000079B9B0740F1A980D8F838101798FEF770
:1026100047FA574B996BFEF743FAC8F83800079B07
:1026200058070FD51899D8F83C00FEF739FA504BE7
:10263000D96BFEF735FA4E4B196CFEF731FAC8F834
:102640003C0013E74A4B5B6AC8F83C300EE7494947
:10265000072004F019FF00283FF459AF079B002B17
:1026600047D10A9A0D93089318E7414B1799186AB6
:10267000FEF714FAD8F83810FEF710FAC8F8380048
:102680007BE73B4B1699D869FEF708FAD8F8341067
:10269000FEF704FAC8F8340068E7B9F1000F19D062
:1026A0000021D8F80C00FEF797FC00287FF427AE35
:1026B000B9F18C0F00F0658200F25982B9F1020F76
:1026C00000F02682B9F1030F00F02482B9F1010F66
:1026D0007FF4E3AE079B0A9A002B089B08BF0023F8
:1026E0000893DBE6079B002B7FF462AF0A9A0D93F9
:1026F000D4E6D90704D41E4BDB69C8F81030079B19
:102700009A0704D41A4B1B6AC8F81430079B5B075E
:1027100003D4174B5B6AC8F8183000230D934EE7BB
:10272000134B1B6AC8F8383094E6114BDB69C8F8C4
:10273000343083E60F49062004F0A6FE00283FF45B
:10274000E6AE8BE719971A971B97AAB124F04904B4
:10275000002C00F03E83102324E4054B1B6AC8F8CC
:1027600038305CE7024BDB69C8F8343048E700BF1B
:10277000540F0020A80F0020B24B93F848309C075C
:1027800014D598F80130013B022B04D90A9B43F081
:102790004003DBB20A93079B1BB1089B022B00F09E
:1027A000AF81A94B5B7A102B00F032830A9B03F0B8
:1027B0004004A549D8F8202098F802308A614B706F
:1027C00013B108238DF86C30D8F80C309E4AD8F835
:1027D0002C50D068294613611993FEF7FDFB0028A1
:1027E00000F0A6800A9B980600F1A280964B587ACA
:1027F00004B91A9598F80A3098F830209249834223
:102800000A7507D018461A9905F0DCF998F80A30CD
:102810008D4A53728C4A9DF86C30527A98F80900B0
:102820001343894A8DF86C30127A824209D0FFF73F
:102830006BF998F80930844A13B1127A1343824A2B
:102840001372814A9DF86C30117A98F800200B437E
:10285000042A8DF86C3000F0468198F803307A49EC
:1028600098F805208B70089B0A71032B00F02581D6
:10287000754A98F8073092799A4207D016AA724C96
:1028800007CA8AE80700A37106F0AAFD98F800308D
:1028900098F804206C49262BCA7000F095807BD9EB
:1028A0005C2B71D0662B65D0282B5ED098F8013058
:1028B000654A502B137003D0089A022A00F08980D1
:1028C00098F80830604AD371002B3FF46BAB03F0EB
:1028D00091F95D4BDB79032B3DD00121002464226B
:1028E00059485A4B0170197804710229C470447018
:1028F0008471447204721A725A729A7210D000F182
:102900002801204604F0C0FD00283FF400AE06F088
:1029100067FD2046002105F0CBF82046FFF7D0F8F0
:10292000082003F081FC0023474AD371FFF73ABB2C
:10293000454B587A60B10A9B190609D4002C00F067
:10294000D780002105F03EF93F4BD8F82C50587A3B
:102950003D4BDD604CE73D4B1B78022BE3D008205C
:1029600006F094FD02F054FFDDE73949072004F03A
:10297000B7FC9BE70023374AA2F134014B63536055
:10298000936006F02DFD91E7324B334A07CA83E886
:10299000070006F025FD89E71C2B34D01E2B32D012
:1029A0000A2B83D10D9D2D4C2846214604F098FC1E
:1029B000254B9B79AB427FF479AF94E807008AE816
:1029C000070006F00DFD71E72149062004F088FCA0
:1029D0006CE7012B6AD0002B5BD0023B012B41D965
:1029E0009DF86C301C4D43F004030A9A19A928463F
:1029F0008DF86C3001F076F8E0B9154C95E80700D9
:102A000084E807005CE79DF86C3043F001038DF823
:102A10006C30089B1BB119A90F4800F0F7FD0F4D52
:102A20000B4C284619A900F0F1FD95E8070084E851
:102A300007003BE701287FF443AF0949044806F04B
:102A4000D9FC3DE790110020540F0020DC0F00203E
:102A5000700F0020880F0020CC0F0020A80F00204E
:102A6000001000200A9B974DC3F380030493119B31
:102A7000954C0393109BD8F8286002930F9B19A9DB
:102A800001932246A5F124032846009600F0F4FDA8
:102A9000B4E79DF86C308B4D43F0010319A928462B
:102AA0008DF86C30884C00F0B1FDA7E7854D19A971
:102AB000284600F0ABFD844CA0E798F806304B7137
:102AC00013B90023C8F83C30D8F83C407F4B21466E
:102AD000186CFEF781FA00287FF4CAAE7B4B1C64A9
:102AE00006F07EFCC4E6D8F8240000F0C7FFB4E688
:102AF000294605F067F8754BD8F82C50587A27E727
:102B00000A9B63F07F03DBB20A9303F0400450E6B4
:102B10000B9B0A93079B002B3FF415AC0E9A1342B4
:102B200002D12023FFF73EBA684B08EB860203EB85
:102B30008603D969506BFDF7B1FF644B08EB850242
:102B400003EB85030B90D969506BFDF7A7FF17F0D6
:102B5000800381465FD027F080070C2259495A48EC
:102B6000BFB207F015FF28BB2123FFF71BBAB9F14D
:102B70008E0F06D003D3B9F18F0F7FF48EAC0C9B70
:102B80000A9309F17203DBB2012B04D80A9B43F0CC
:102B90000803DBB20A93079B002B3FF4D4AB0C2253
:102BA0004849494807F0F4FE0028DDD00A9B03F0AD
:102BB000010273E498F80330012B06D1D8F82800FD
:102BC0004349FEF775F8C8F82800D8F828100846D9
:102BD000FEF76EF84FF08141FEF76AF809900B9806
:102BE0000146FEF765F8099B01461846FDF756FFBA
:102BF000494609904846FEF75BF8099B014618468E
:102C0000FDF74CFF00210990FEF7F0F9099B48B150
:102C10002223FFF7C7B9099A0E990A425AD12323F2
:102C2000FFF7C0B9184607F0E3FF494609900B9833
:102C300001F0EAF8099B014603F100431846FEF74C
:102C4000EBF8034698F801200021032AD8F8282041
:102C500008BF00F1004310460C930992FEF7C6F935
:102C6000099A0C9B28B102F1004203F10043C8F815
:102C70002820184649460993FEF71AF8DDF82CB0CB
:102C800001465846FDF70AFF4FF07C51FEF710F859
:102C90000236099B08EB8606B06059461846FEF7D7
:102CA00007F84946FDF7FCFE4FF07C51FEF700F8AF
:102CB00002350A9B08EB850503F00102A860FFF7C7
:102CC000EDBB00BFCC0F0020700F0020540F002080
:102CD0003333CB4198F8032027F00E07012ABFB207
:102CE00000F0AD80023508EB8505A9684846FDF780
:102CF000D5FE8146023608EB8606B1680B98FDF7D3
:102D0000CDFE494601F080F8A9688146B06801F01F
:102D10007BF8064648463146C8F82860FDF7BEFEF7
:102D200020F0004528465549FEF77EF900283FF47B
:102D30003DAF4FF07C512846FEF776F900287FF42E
:102D400013AF4F493046FDF7B3FF01462846FEF763
:102D50006BF900287FF408AF28E7002398F81C20BF
:102D600012951392474A25469B461446DFF8249154
:102D7000079B43FA0BF3D80706D5139B142B0FD0F0
:102D8000D9F82430C9F800300BF1010BBBF1030F67
:102D900009F1040904F10404EAD12C46129D0EE461
:102DA000A1692068FDF77AFED9F82410FDF776FEB8
:102DB000BBF1020FC9F80000E6D1334B2C46196C69
:102DC000FDF76CFE129D98F80190C8F81800FFF707
:102DD000EBBB98F80030352B02D0002B7FF4BBAC56
:102DE000294A294B117A5B7AD2680B4319A82749E3
:102DF0008DF86C301A9200F051F8034600287FF4E9
:102E0000D1A8234A1F4C07CA84E80700FFF7CAB8B5
:102E10001D4B0A9A1B78013B022B134629D812F04E
:102E200040043FF4C6AC43F02003DBB20A9303F046
:102E30004004BEE498F807300D93FFF761BB154AD4
:102E40000C95934625461C46099B234113F0010F20
:102E500004F1010406D0DBF800000F49FDF728FF5C
:102E6000CBF80000032C0BF1040BEDD12C460C9D8C
:102E700038E712F040047FF49CACD4E70AD7A33BB8
:102E80006F12833A700F0020540F0020980F00201B
:102E9000CC0F0020A80F00203333CB4170B505467E
:102EA000037AC86843F00403124A28602B7292F830
:102EB000483001F134049B0606D5204606F0B6FAE8
:102EC00010B10F24204670BD0B4E2046294600F05D
:102ED0009DFB347814B10024204670BD01F06EF9DA
:102EE0000028F8D02023337005F0D2FA04F020FF38
:102EF000204670BD90110020DC0F002030B501216C
:102F000085B009204FF46044FEF796FC4823032265
:102F100004A91F4D21F8104D1E488DF803308DF87F
:102F20000220FEF76DFA95F848301B0706D44FF4DF
:102F30008072194BC3F8842005B030BD642000F0C6
:102F400053FF0D210120FEF759FC0E210120FEF751
:102F500055FC0F210120FEF751FC95F84830002266
:102F600013F0400F14BF08210C21012302A88DF893
:102F70000D108DF80C208DF80E300294FEF7F6F847
:102F8000064B04A840F80C3DFEF7BEF805B030BD76
:102F900090110020000C014000E100E02802020135
:102FA0004FF48072014BC3F88420704700E100E0C9
:102FB00010B51148FEF7DAFB104B93F848305B066A
:102FC0005CBF80F4604080B2A0B10D4A1388548881
:102FD000184219BF0321012300230221204218BFF8
:102FE0000B46918843F00402084214BF104618466D
:102FF00000F0FF0010BD00BF000C01409011002048
:103000003CBD000808B54FF40050FEF7EDF838BBA2
:103010004FF48040FEF7E8F8E8B94FF40040FEF7BF
:10302000E3F898B94FF48071104A114BC2F884113B
:103030001B78012B02D00F4B1B7803B108BD00F0A9
:10304000E3FDBDE80840012006F034BA4FF400402B
:10305000FEF7D8F8E6E74FF48040FEF7D3F8DCE758
:103060004FF40050FEF7CEF8D2E700BF00E100E0D9
:10307000DC0F00200C1000202DE9F04FDFF840821B
:103080008FB098F8013013B10FB0BDE8F08F04464F
:103090000621854A049004F00104106892880A937E
:1030A0000893099304F0FF030690ADF81C208DF8F7
:1030B00028100593002C40F0AE804FF0000A7B4FA3
:1030C000049BC3F34003039353B17949B86AFDF7F6
:1030D000EFFD054601465046FDF79CFF00B9AA46A4
:1030E000049BC3F38003029353B17149F86AFDF75F
:1030F000DFFD054601465046FDF78CFF00B9AA46A4
:10310000E3B201930423D7F850B000935B46012546
:10311000D3469A46674EDFF8AC9167490BA806F094
:1031200069F9019B002B00F047810021B7F84A2084
:10313000614BD007196040F15781002D40F0578155
:10314000CDF82CB002220120BDF81840039B83B1BA
:103150000020B7F84A10584B8907586040F13D816C
:10316000002D40F03D81CDF830B01046BDF81A106A
:103170000C43029B8BB10021B7F84A204E4B013023
:103180005207C0B2996040F13681002D40F036817F
:10319000CDF834B0BDF81C301C43FDF731FD07F00D
:1031A00027FDA8F8064001465046FDF781FD08A915
:1031B00008900BA801F0EEF8042388F8043005F01D
:1031C00067F904F0B5FDDFF800A1002D7ED105F010
:1031D0005FF9337813F0340F40F0B3806007F4D117
:1031E00005F000F8B7F8540000F0FEFD85F001048A
:1031F000002D40F0E580BD6D30492846FDF758FDB3
:10320000009B83465A1E12F0FF03D7F84CA0009390
:1032100010D0254681E7254F2549786AFDF748FDFE
:1032200000218246FDF7F6FE00287FF449AF4FF0FB
:10323000000A45E7AA46059BB7F84A406BB1E1078B
:1032400040F1F080796A5046FDF72AFC3968FDF7B5
:103250002FFD07F069FC184B1860039B6BB1A207A8
:1032600040F1E880B96A5046FDF71AFC7968FDF72D
:103270001FFD07F059FC104B5860029B6BB16307B0
:1032800040F1C880F96A5046FDF70AFCB968FDF7BD
:103290000FFD07F049FC084B9860002388F80430C4
:1032A0000FB0BDE8F08F00BF44BD000890110020B2
:1032B0000000C0BFF10F0020001000200000A0405F
:1032C000DC0F00203CBD0008000C01405046FEF71A
:1032D0004DFA97F848305B065CBF80F4604080B2DE
:1032E00030B3B9F80030B9F80220184214BF0123F6
:1032F00000231042B9F8042018BF43F00203104223
:10330000BDF8182018BF43F00403144202D0D907B7
:1033100048BF9443BDF81A20144202D0980748BF12
:103320009443BDF81C20144202D09B0818BF94435C
:10333000A8F8064005F0ACF8337813F0340F3FF4EA
:103340004DAF3478E4B2E1065CD4A2060AD475B17C
:1033500064075BD43E4B1B78002B73D1042006F02E
:103360009FF83DE7072006F0A5F8002DF0D1394879
:10337000FEF7FCF997F848305B065CBF80F46040CC
:1033800080B20028E6D0B9F80030B9F8022018421F
:1033900014BF012300231042B9F8042018BF43F0E2
:1033A00002031042049A18BF43F004031A42D1D01A
:1033B000082006F07FF8CDE71C4618460122C5E636
:1033C000009BD7F858B05A1E12F0FF03D7F850A050
:1033D00000937FF41EAFDA462DE7002D7FF4C3AED5
:1033E0000BF100410C91C0E6002D7FF4A9AE0BF16A
:1033F00000420B92A6E6002D7FF4CAAE0BF100430B
:103400000D93C7E6062006F055F89EE7092006F062
:1034100051F89FE7B9680AF10040FDF749FC07F051
:1034200083FB38E739680AF10040FDF741FC07F0FB
:103430007BFB10E779680AF10040FDF739FC07F0E3
:1034400073FB18E700F0E0FB02F0E2F91CE600BFB6
:103450000C100020000C014010B505F0E7FFC8B1CA
:1034600001230D4C2078E370082808D000F0CCFB35
:10347000022006F01FF8BDE8104002F0C9B906F0BE
:1034800005F802E02378002BF0D002F0C1F9637850
:10349000002BF7D010BD00BFDC0F00202DE9F04F4E
:1034A000012183B01020FEF7C7F94FF4005010231C
:1034B000022202A921F8040D00F1804000F57040BD
:1034C0008DF807308DF80620FDF79AFF06F08CFF87
:1034D00006F096FF06F03CFDFDF79AFEFEF73EFB78
:1034E0002A494FF064080A68294D22F004020A6054
:1034F00003F0BEFD04F03CF904F0E0FE05F02AFD07
:1035000000210C46234A244892F84820234EDFF835
:1035100098B0DFF898A0DFF89890214FC2F300121E
:103520000160416081601F4B8BF80040AC608AF8FD
:1035300000402C6089F800402A701C706C60EC60C0
:103540002C6185F8088085F8098085F80A80346048
:103550007460B4603C7003F0A1FEFEF79DFB04F0C4
:103560009FF9FEF75BFAFFF7C9FC01F0B7FB00F02B
:10357000DFFD04F037FE01F039F9FEF7A3FB02F09E
:10358000B1FE02F073FD2A78CDE700BF10E000E045
:10359000DC0F00209011002000100020F40F00200C
:1035A000F00F0020D80F0020F20F0020F10F0020B4
:1035B0000C10002042F22831094B30B400250124C0
:1035C0001A4601FB00F058609D601C60136803F010
:1035D0000113012BFAD0002330BC136093607047B5
:1035E00010E000E010B5074C4FF400512278064877
:1035F000FEF7C8F8237813F1FF3318BF01232370B7
:1036000010BD00BF0000002000100140F8B5174DAC
:103610000E4695F8483007469906154C04D5237890
:10362000202B0AD0FFF718FF2378022B05D1F8BD15
:1036300000F0F0FD38B101F0BFFB02F0E9F863786B
:10364000002BF5D0F3E73846314600F0A3FE002802
:10365000EDD195F848309A07E9D5337ADB06E6D5FF
:1036600071681020BDE8F84004F0ACBA9011002059
:10367000DC0F0020000000002DE9F04F1F4691B044
:103680009DF86C40834653F82450A300D6180F9041
:103690000B91284652F824100296FE1807920C96B9
:1036A000FDF7FEF99DF87060079A57F82680B30081
:1036B0001F4452F8261082461A4403904046049252
:1036C0000D97FDF7EDF95146814605905BF8240012
:1036D000FDF7E4F9494604465BF82600FDF7DEF9FC
:1036E00005F10045064621462846FDF7E1FA08F1B6
:1036F0000048074631464046FDF7DAFA01463846AB
:10370000FDF7CEF9314681462846FDF7D1FA21462C
:1037100006464046FDF7CCFA01463046FDF7BEF9B5
:10372000494607F063FA9DF8787006461A9C9DF8A2
:103730007490002F00F0D080FCF76EFEA8A3D3E9B0
:10374000002382468B46FDF741F9002840F0E980CE
:10375000DFF8B0B22146DBF83C702046FDF7A0F957
:103760003946FDF79BF93946FDF7A2FA07F040FA12
:103770004FF07C5107462046FDF79AFA3146FDF797
:1037800097FA394620F00040FDF746FB07F08CF928
:10379000FDF790FC83B20193002B00F06B810B9B33
:1037A00001981C7A220700F1AE80FDF72DFA07463A
:1037B00039464FF07E50FDF72FFB04460146304658
:1037C000FDF776FA079B0F9A53F8291007460E90DB
:1037D00052F82900FDF762F92146FDF769FA3946EA
:1037E00006903846FDF764FA014604464FF08040E3
:1037F000FDF754F9804906463846FDF759FA214647
:1038000007467E48FDF74AF901463846FDF750FA6B
:10381000079B08904FF07C51304603EB8907FDF77A
:1038200047FA019B0990012B00F0248101264FF0FB
:103830000009734CB9F10B0F00F2E6802946089895
:10384000FDF736FA414682460998FDF731FA0146FE
:103850005046FDF725F9294682460998FDF728FAD2
:10386000414605460898FDF723FA01462846FDF72C
:1038700015F9D046054609F101095FFA89F903995E
:103880002846FDF70DF9029B059918604046FDF7A3
:1038900007F9049B069918603868FDF701F938604C
:1038A0009BF848309B0605D52378202B0CD0079831
:1038B000FFF7D2FD2378022B06D151E000F0AAFCDD
:1038C000002839D001F078FA01F0A2FF6378002BCC
:1038D000F4D011B0BDE8F08FFCF79EFD42A3D3E910
:1038E000002382468B46FDF767F800283FF430AF8F
:1038F0003FA3D3E9002350465946FCF72FFCFDF7C0
:1039000079F8064624E7FDF77FF90B9B0146074649
:103910001868FDF7CDF90B9B24F0080418601C72A1
:1039200046E733A3D3E9002350465946FCF714FC7D
:10393000FDF760F806460BE7DDF82CA00798514626
:1039400000F028FD60B99BF84830980708D59AF830
:103950000830D90604D50B9B1020596804F032F9C1
:103960006378002BB5D10136019AB3B29A423FF683
:1039700061AF9BF84830990605D52378202B0FD0EE
:103980000F98FFF769FD2378022BA2D001F040FFCA
:103990006378002B9DD100F03DFC50B101F00CFA92
:1039A00001F036FF6378002B93D100F033FC002840
:1039B000F4D10B9C0F98214600F0ECFC002888D134
:1039C0009BF848309A0784D5237ADB0681D51020EE
:1039D0000B9B596811B0BDE8F04F04F0F3B800BF7D
:1039E0008DEDB5A0F7C6A0BE8DEDB5A0F7C6A03E83
:1039F000182D4454FB211940ABAA2A3E0000C040B8
:103A0000DC0F0020901100203046FDF7FDF80E99E4
:103A1000FDF74EF9054607F013F88046284607F0F3
:103A2000AFF80C9B82461B68404603F100431946E1
:103A30000A930D9BD3F80090FDF73AF949460546E5
:103A40005046FDF735F901462846FDF729F80A9B4F
:103A5000054619465046FDF72BF949468246404631
:103A6000FDF726F901465046FDF718F84FF000091A
:103A7000804604E7004C7CE7DC0F0020074B1B78F6
:103A8000022B09D010B5044602F0B4F82046BDE878
:103A90001040002100F070B9704700BFDC0F00201B
:103AA00008B5FFF77DFA0420FFF7E6FA0320FFF7D9
:103AB000E3FA01F0ADFE094B5B786BB9FEF702F952
:103AC00000F094FE4FF46040FDF79CFB4FF48072D1
:103AD000034BC3F884215A6008BD00BFDC0F0020EF
:103AE00000E100E02DE9F041424C2378022B0CD09C
:103AF00017460E46054602F07DF894F80180B8F1AD
:103B0000000F05D00220BDE8F0810020BDE8F08163
:103B1000C7F3C00084F8058001F006F901F018F938
:103B200040B1042005F0C6FC01F072FE404601F0F1
:103B3000FBF8E7E7DFF8CC8098F84830980605D521
:103B40002378202B0BD02846FFF786FC2378022B06
:103B500005D109E000F05EFB70B301F02DF901F032
:103B600057FE6378002BF5D00123234D02202B70E4
:103B700005F08CFC01F04CFE6378002BC2D1237859
:103B8000002BF7D12B78012B28D001236371002360
:103B900018462B7001F0C8F801F03AFE04F022FB41
:103BA00000F0C6FA00F022FE02F044FE6079003018
:103BB00018BF0120BDE8F0812846314600F0EAFB3D
:103BC0000028D1D198F848309907CDD5337ADA0654
:103BD000CAD57168102003F0F5FFC5E7FB0605D5CF
:103BE000064A074B07CA83E80700D0E7052005F01F
:103BF00061FCCCE7DC0F0020F20F00200010002059
:103C0000F40F00209011002008B5144B1B78DB0640
:103C100000D508BD102005F039FC03F0E9FEFDF7E2
:103C200041FF0F4A137813F02C0F08D0042B0CD04F
:103C3000032005F03FFCBDE8084004F0B9B8127954
:103C400012F0060FE5D0042BF2D1064B1B78002BA7
:103C5000F1D1062005F02EFCEDE700BFF10F0020AA
:103C6000DC0F00200C1000202DE9F04F0C7883B001
:103C7000035D04442D2B65D02B2B68D04FF000083A
:103C8000651C002634463746B6460CE00134E4B2E3
:103C9000082C11D80EB1013F7FB20EEB8E0E03EB54
:103CA0004E0E15F8013B303BDBB2092BEED9FE2B53
:103CB00007D136B90126F4E7002EF2D101377FB2E1
:103CC000EFE7002C37D08246704601919146FCF711
:103CD00097FF00218346FDF77FF908BB791C12DAB4
:103CE0003E46224C58462146FCF7E2FFB31C5EB22A
:103CF000721C8346F6DBFFB2C7F1FE0303F0FE033E
:103D00001F4402377FB27B1C26D04FB1184C584657
:103D10002146FCF7CDFF013F7FB28346002FF6D14D
:103D2000B8F1000F0BD10124A5EB0A05019B013D61
:103D3000C9F800B01D70204603B0BDE8F08F0BF14C
:103D4000004BF0E7A51C63784FF0010899E74FF0AE
:103D500000086378A51C94E758460649FCF7A8FFBD
:103D60008346B8F1000FDED0E9E700BF0AD7233C55
:103D700000002041CDCCCC3D70B50E461849FCF773
:103D800097FF06F01DFEFDF795F980B2B0B1154D15
:103D90006B789BB9441EA4B28EB14FF6FF7608E053
:103DA000013C3220A4B2FFF705FCB44206D06B7888
:103DB000ABB901F00BF8AB789B07F1D570BD4FF6AE
:103DC000FF7601E06B784BB9013C01F021FDA4B214
:103DD0003220FFF7EFFBB442F4D1EFE770BD70BDC6
:103DE0000000A041DC0F002060B138B54FF6FF7530
:103DF000441EA4B2013C0120A4B2FFF7DBFBAC429D
:103E0000F8D138BD704700BF38B50D460146FCF704
:103E10004FFF294604462846FCF74AFF0146204644
:103E2000FCF73EFEBDE8384006F0E2BEF8B50446B9
:103E300087680021384625686668FDF7CDF80028B8
:103E400039D139463846FCF733FF00210746304662
:103E5000FDF7C2F8002835D131463046FCF728FF7F
:103E600001463846FCF71CFE002106462846FDF7B1
:103E7000B3F848BB29462846FCF71AFF01463046EE
:103E8000FCF70EFE06F0B4FE064601464FF07E50EB
:103E9000FCF7C2FF29460746FCF70AFF39462060B7
:103EA0006068FCF705FF39466060A068FCF700FF1A
:103EB000A0603046F8BD002130460027FDF78CF8A1
:103EC0000028C9D00021CCE70021D8E7F8B50C685C
:103ED0000D46064600212046FDF77EF8002830D129
:103EE00021463068FCF798FF20F000442046164930
:103EF000FDF786F828B36F6800213846FDF76CF8A7
:103F000058B939467068FCF787FF20F000473946FA
:103F10002046FDF775F800B93C46AD6800212846FB
:103F2000FDF75AF858B92946B068FCF775FF20F03C
:103F3000004529462046FDF763F800B92C46204687
:103F4000F8BD014CD7E700BFFFFF7F7F2DE9F04FA1
:103F5000724B83B01B780093002B71D0704A5D1EAA
:103F600092F80090EDB2A945019266D034276D4CCD
:103F700007FB0547396AF869FCF79AFE0146FCF72A
:103F80008FFDD7F818A08046514607F11406FDF7BB
:103F900037F800B9D046C6F800804FF0230B002D4B
:103FA0006CD0009B023B5FFA83FB67E0AB465B4B48
:103FB0001B7800934FF0340A0BF10102D6B2019B3B
:103FC000242E08BF00260AFB0B4B93F800902EE02E
:103FD0000AFB0647DBF814807D6940462946FDF759
:103FE00005F8A8B1DBF82010DBF81C00FCF760FE38
:103FF0000146FCF755FD4146FCF752FD804601465F
:104000002846FDF711F818B14546B146C7F81480A7
:104010000AFB064329469869FCF7DEFF731C00285B
:1040200018BFB146DEB2242EBB4608BF0026009B57
:104030009E42CDD1019B83F8009003B0BDE8F08F84
:10404000374B93F800900193B9F1230FF5D0354C1D
:10405000D4F83817D4F83C07FCF72AFE0146FCF7E1
:104060001FFDD4F8347705463946FCF7C9FF00B97F
:104070003D464FF0220B2C4FC4F83057D9453FD066
:1040800034265D4626E0DDB2284B06FB08481B7847
:10409000AB422CD0D8F818B0D8F814005946FCF729
:1040A0009BFF98B9D8F82010D8F81C00FCF700FE48
:1040B0000146FCF7F5FC7969FCF7F2FC074601467E
:1040C0005846FCF7B1FFC0B1C8F814704D455746CB
:1040D0003FF46CAF6B1EA84606FB054A002DD2D1FB
:1040E0002325124B06FB08481B78AB42D2D104F0C3
:1040F000B9F9019B93F80090CCE7C8F814B0E5E754
:104100000A4A12785A457FF455AF04F0ABF9034BD5
:104110001B780093019B93F800B04BE750090020F7
:1041200051090020000200201C0900205209002033
:104130000023012070B4094A09490A4E0A4D0B4C6C
:10414000136053609360D36013615361936108708F
:1041500033702B70237070BC704700BF540900206F
:104160005309002052090020500900205109002065
:1041700009490A4B0A781B7893420CD0531CDBB2D6
:10418000242B08BF002310B405480B700478944218
:1041900008BF037010BC704752090020500900206E
:1041A000510900203420034A034B127800FB0230EF
:1041B000704700BF5009002000020020054B064A4E
:1041C0001B7812789A421DBF3422044802FB030078
:1041D00000207047520900205009002000020020F2
:1041E000094B0A4A1B7812780133DBB2242B08BF33
:1041F00000239A4205D03421054A01FB0323586964
:1042000070470020704700BF52090020500900206D
:1042100000020020044A054B10781B78C01AB0FA3F
:1042200080F04009704700BF520900205309002068
:1042300038B5837CC56ADA0714D5164B587AFCF773
:10424000E3FC1549FCF734FD2946FCF731FD044633
:104250004FF07E512046FCF7DDFE08B94FF07E544A
:10426000204638BD5B0704460BD40A4B187AFCF78E
:10427000CBFC0949FCF71CFD01462846FCF718FD5C
:104280000546A46A29462046FCF7BAFE0028DFD17D
:104290002C46DDE7DC0F00200AD7233C2DE9F04F48
:1042A000354B364D364A1B7885B0287A1478019301
:1042B000FCF7AAFC3349FCF7FBFC0390687AFCF797
:1042C000A3FC3049FCF7F4FC2F4F0290DFF8C0B09C
:1042D0004FF0340A4FF07E5923E041460298FCF734
:1042E000E7FC054649462846FCF794FE00B94D46D2
:1042F00029463846D6F82480FCF778FE00282FD0CF
:1043000039463846FCF7D4FC074641463846FCF7A8
:104310008BFE10BBB7610134E4B2242C08BF00242B
:104320002F46019B9C4221D00AFB04B6B37CD6F8F1
:104330002C80DA07D1D45B0704D440460399FCF7FC
:10434000B7FC80460AFB04B39D6A41462846FCF749
:1043500057FE0028C6D14546C4E7C6F81880DAE7FC
:1043600029462846FCF7A4FC0746CEE7074B9F6189
:1043700005B0BDE8F08F00BF50090020DC0F002021
:10438000520900200AD7233CFFFF7F7F54090020F9
:104390000002002034222DE9F04F8A468346DFF8E0
:1043A0001C93BB4D99F800608FB002FB06570021AB
:1043B000384606F0FCFA9AF80830DAF80420980734
:1043C0003A63DFF8FC824CBFB24AB34ABB7405AB18
:1043D00007CA83E80700D8F80020DBF80010104671
:1043E0000192FCF765FC06F09FFB4FF0340C014690
:1043F0000CFB06FC059805EB0C03081ADA6880EA4A
:10440000E074A4EBE074944245F80C4038BF1446C5
:10441000DC6000930291FCF7F7FB019A1146FCF770
:10442000FBFC00210890FCF7E1FD009B002840F018
:104430005181D8F80420DBF8041010460192FCF7F3
:1044400037FC06F071FB014606983423081A80EA0F
:10445000E07EAEEBE07E744538BF744603FB065346
:10446000C3F804E0DC6000930391FCF7CDFB019AF4
:104470001146FCF7D1FC00210990FCF7B7FD009B29
:10448000002840F02181D8F80830DBF808101846E1
:104490000093FCF70DFC06F047FB024607984FF02F
:1044A000340B101A80EAE071A1EBE0718C4238BF46
:1044B0000C460BFB065BCBF80810CBF80C400492C3
:1044C000FCF7A2FB009B1946FCF7A6FC00210A9012
:1044D000FCF78CFD20B964B920460FB0BDE8F08F21
:1044E0006E4ABBF8103092881343ABF81030002CA2
:1044F000F2D04FF0340B08AC2046FFF797FC0BFBD3
:10450000065B2146CBF820006548FFF7DFFC21461B
:10451000CBF81C006348FFF7D9FC9BF81230CBF8AE
:104520002800D90700F1DC80DAF800101A07CBF870
:104530002C1007D5DBF820000093FCF7B9FB009B9B
:10454000CBF82C00584A99F800101278914200F0EC
:10455000D0809B0700F1CD80DFF83CA1089BDAF802
:104560000CB0184659460093FCF7A2FB009B594635
:1045700000F1004B1846FCF791FADAF81020099B7D
:1045800011460B90184601920093FCF791FB0146EF
:104590005846FCF783FA019A009B11468346184659
:1045A000FCF77CFADAF81430DDF828A00C905146BC
:1045B00018460093FCF77CFB01465846FCF76EFA60
:1045C000009B834619465046FCF768FA37490D9020
:1045D0005846FCF729FD002800F0B980342300225A
:1045E00003FB06535A62342303FB06539A7C90075D
:1045F00000F18680D107D3F82C8040F185802C4BC8
:10460000587AFCF701FB4146FCF752FB2949FCF7BD
:104610004FFB05464FF07E512846FCF7FBFC08B9DE
:104620004FF07E551C4E2946D6F818A0D7F82480A6
:104630005046FCF7DBFC002800F0838051465046D2
:10464000FCF736FB824641465046FCF7EDFC00285D
:1046500074D1C7F818A0184ADFF868E0117802AFE3
:104660004B1CDBB2242B08BF0023B56189F8001076
:10467000137094E807008EE8070097E8070086E8C3
:104680000700FFF763FC01200FB0BDE8F08F00BF0B
:1046900000020020001000205409002034BD000852
:1046A000A81100209C11002052090020EFFF7F3F3D
:1046B000DC0F00200AD7233C5309002050090020BA
:1046C0009011002060090020414A198A52880A434B
:1046D0001A82D8E63E4A198A12880A431A82A8E644
:1046E0003C4A99F800101278CBF82C0091427FF4E4
:1046F00030AF3423002203FB06535A615A6272E73B
:1047000001200FB0BDE8F08F53070AD4324B187A5E
:10471000FCF77AFA4146FCF7CBFA3049FCF7C8FAC5
:104720008046342303FB06539D6A41462846FCF726
:1047300067FC00287FF46EAF45466BE7C7F818802A
:1047400089E729462846FCF7B3FA82467BE72449E5
:104750005846FCF74BFC28B1342303FB0653214A8F
:104760005A6240E70BA8FFF761FB0BA91E48FFF751
:10477000ADFB594600904FF07E50FCF78FF94FF09B
:104780007C51FCF795FA06F033FA8346009B5946B4
:104790001846FCF78DFAD8F83810FCF789FA594614
:1047A00080464FF07E50FCF779F901464046FCF711
:1047B00033FB4FF0340A00210AFB065A8046FCF70F
:1047C00029FC08B94FF00008CAF824800BE700BFA5
:1047D00034BD000852090020DC0F00200AD7233C1A
:1047E000EFFF7FBFFFFF7F7FA8110020024A034B2E
:1047F00007CA83E807007047001000205409002012
:10480000064A074B12781B789A422CBF03F123000B
:1048100003F1FF30801AC0B2704700BF500900207A
:104820005209002008B503F01DFE044A044B12781B
:104830001A70BDE80840FFF789BB00BF520900208D
:104840005109002010B50446007828B102F012FC8E
:1048500014F8010F0028F9D110BD00BF632870B50E
:10486000054620D91C48A0FB05304009303002F035
:1048700001FC1A48A0FB0534E408E3B2A0FB0320C6
:10488000C00800EB8000A3EB40003030C0B202F063
:10489000F1FB04EB8400A5EB40003030C0B2BDE872
:1048A000704002F0E7BB092805D8BDE87040303001
:1048B000C0B202F0DFBB0A26B0FBF6F404F1300010
:1048C000C0B202F0D7FB06FB1450BDE87040303098
:1048D000C0B202F0CFBB00BF1F85EB51CDCCCCCC1A
:1048E000F0B50D4685B000210646FCF77FFB002899
:1048F00052D1012D56D92C462F4F30463946FCF760
:10490000D7F9023CE4B2012C0646F6D805F00103C3
:1049100023B130462949FCF7CBF906464FF07C51CC
:104920003046FCF7BDF8FCF79FFB00283CD0002286
:10493000234EA6FB0013DB0803EB8301A0EB410031
:10494000541C04A930300A44E4B202F8100C224688
:104950001846002BEDD1A54228D96A1E121BD2B2EF
:1049600001320DEB0400302106F021F8302204ABB7
:104970006C1C2B4403F8102CE4B25CB10DEB040664
:10498000A54215D016F8010D013C02F073FB14F09E
:10499000FF04F5D105B0F0BD2D2002F06BFB06F150
:1049A0000046A6E72B46B3E70446D4E7E5D1DDE7AA
:1049B0002E2002F05FFBE5E70000C8420000204126
:1049C000CDCCCCCC30B56E4B85B093F84830DB07FE
:1049D00052D400210446FCF709FB002840F0A880CF
:1049E00068492046FCF764F94FF07C51FCF758F811
:1049F000FCF73AFB002800F0A1800021624D00E0A6
:104A00002146A5FB0023DB0803EB8302A0EB420059
:104A100004AA30304C1C0A4402F8100CE4B21846C8
:104A2000002BEDD1022C16D830228B1C04A8DBB24F
:104A30000444032B04F8102C07D00344FF2903F887
:104A4000102C02D130238DF80230302304241D466F
:104A50008DF8033005E0032CF7D004AB234413F8A2
:104A6000115C013CE4B2022C7BD0284602F002FB30
:104A7000002CF2D105B030BD4449FCF719F90021F2
:104A80000446FCF7B3FA00285ED141492046FCF702
:104A90000FF94FF07C51FCF703F8FCF7E5FA00281A
:104AA00058D00021384D00E02146A5FB0023DB084B
:104AB00003EB8302A0EB420004AA30304C1C0A44F2
:104AC00002F8100CE4B21846002BEDD1032C1ED8CE
:104AD00030228B1C04A8DBB20444042B04F8102CF5
:104AE0000FD00331C9B20344042903F8102C08D0B5
:104AF000302304AA0A44022902F8103C01D18DF89F
:104B00000330302305241D468DF8043005E0042CC5
:104B1000F7D004AB234413F8115C013CE4B2032C3E
:104B200026D0284602F0A6FA002CF2D105B030BDFE
:104B30002D2002F09FFA04F1004451E730238DF854
:104B400000308DF801307DE72D2002F093FA04F15A
:104B500000449AE7302302218DF800308DF80130AF
:104B6000C6E72E2002F086FA284602F083FA74E7A0
:104B70002E2002F07FFA284602F07CFAC9E700BF37
:104B80009011002000007A44CDCCCCCC8B42213D4A
:104B900000401C4670B54D4B84B093F84830DB079D
:104BA00035D400210446FCF721FA00287BD14FF0D0
:104BB0007C512046FBF774FFFCF756FA00286DD0B5
:104BC0000022434DA5FB0013DB0803EB8301A0EBA0
:104BD0004100541C04A930300A44E4B202F8100C1D
:104BE00022461846002BEDD1002C57D004AB1A44B6
:104BF00012F8110C013CE4B26D466C4401E014F86B
:104C0000010D02F037FAAC42F9D104B070BD314960
:104C1000FCF74EF800210446FCF7E8F9002848D1DB
:104C20002D492046FCF744F84FF07C51FBF738FF44
:104C3000FCF71AFAA0B10021254CA4FB0032D208DF
:104C400002EB8203A0EB430004AD4B1C303029443F
:104C5000DBB201F8100C19461046002AEDD173BBE7
:104C600030238DF800303022022316468DF80120C3
:104C70005C1EE5B26D4400E05C1E304602F0FAF9BD
:104C8000E3B2012B15F8016DF6D12E2002F0F2F9F6
:104C9000304604B0BDE8704002F0ECB93020012489
:104CA0008DF80000A6E72D2002F0E4F904F100449D
:104CB0007DE72D2002F0DEF904F10044B0E7012B7E
:104CC000D1D0294411F8116CD2E700BF9011002017
:104CD000CDCCCCCC8B42213D0000204110B5012130
:104CE00082B04FF400740420FCF7A6FD0322482391
:104CF00002A921F8044D09488DF806208DF80730E7
:104D0000FCF77EFB0021064A064B92F948201980E9
:104D10008A42A8BF1C8002B010BD00BF000801403D
:104D2000901100200E10002000230749074A91F936
:104D3000481013809942AABF4FF400714FF40073DA
:104D4000118000B113807047901100200E100020D8
:104D500008B50548FCF70AFD044B00F400701B88F9
:104D6000181A18BF012008BD000801400E100020CD
:104D700038B50B48FCF7FAFC0A4B00F400701B88AE
:104D800083420CD00021084B084D094A094C197088
:104D90002B7807CA84E8070043F040032B7038BD26
:104DA000000801400E100020F20F0020F10F00203B
:104DB00000100020F40F002008B5FFF7FFF920B124
:104DC000BDE80840022004F061BB08BDF8B5AC4B5B
:104DD0001B78002B4FD1AB4CAB4D2B7803F0FF056C
:104DE00093B3EE0600F1D680E80700F1F18015F0EC
:104DF000E80F0AD02378990700F0F0806EB2002EF9
:104E0000C0F26181E82004F04BFBAB0719D515F027
:104E1000680F13D12378402B00F06D81002B40F0F8
:104E20003B8100232371FFF7C9F920B1A37813F068
:104E3000400300F098810023A3702370022004F047
:104E40002FFB690700F1A980904B1B7803F0FF0549
:104E5000002B67D18E4B1B7803F0FF05DBB923785D
:104E600013F0FC0F03D1F8BD15F0C00F47D1BDE81A
:104E7000F84003F00DBB012603F0FF05814C2846E6
:104E8000013D267001F0BAF9B54240F222817E4D13
:104E900004F018FBA1E704F039FBA27A15F0010F2A
:104EA0000CBF13466423A80744BF0A33DBB269076B
:104EB00044BF0A3BDBB22F0744BF0133DBB2EE062F
:104EC00044BF03F1FF33DBB2C82B28BFC8230A2B32
:104ED00038BF0A239A4206D000212279A37242F0F9
:104EE000080323712173A806237802D5102B00F044
:104EF000BD8015F0C00FB3D0002B40F0DF80654FB0
:104F00002A063E7A00F1F080680605D571064CBF8E
:104F100006F0BF0646F040063046FCF7D1FD237888
:104F20003E729DE704F0EAFA217A15F0010F0CBFFA
:104F30000B466423AE0744BF0A33DBB2680744BFA5
:104F40000A3BDBB22F0744BF0133DBB2EE0644BF9E
:104F500003F1FF33DBB2C82B28BFC8230A2B38BFAD
:104F60000A23607A15F0200F14BF6422024615F060
:104F7000400F18BF322215F0800F18BF1922994236
:104F800023D00021237262722173FFF787F9FFF7A4
:104F900049FC5FE701236370F8BD237813F0D00F5D
:104FA00002D0E378002B51D0A3781F0652D413F01F
:104FB000200236D0402203F07F0343F00103A370A8
:104FC0002270042004F06CFA3EE78242D9D141E716
:104FD00001F06EFE012004F063FA08E713F0280FD9
:104FE00022D133BB0122A2706A0600F19A802F07FA
:104FF0006EB201D510232370A8067FF500AF0620FE
:1050000001F012F9A378190607D42278402A00F09B
:10501000B980802A01D04022227043F02003A3707F
:10502000EDE6A2702270CCE7A27812F0C00F00F07B
:1050300089806AB26806164602D5990640F1AA80B0
:105040002F07D9D513F0E00FD6D1D3E794F902306A
:10505000002B59DA00232371FFF76AF803F0C2F836
:10506000FCF730FEFFF7C2FBA378A0E7E37A002B42
:105070005CD10223E37215F0C00F7FF440AFF6E677
:105080000C100020DC0F0020F10F0020D80F0020B2
:10509000F00F0020540F0020DA067FF5CFAEA27883
:1050A000D0077FF5CBAE102B7FF4BBAEE37A002B9D
:1050B0003FF4B7AE43F00803E372BFE613F0180FF6
:1050C0003FF4CEAE1BE72378012B36D0802323702C
:1050D00098E6304601F0A8F8102004F0E1F92F4DD1
:1050E0002B78DF06FCD5D3E633064CBF06F07F06EF
:1050F00046F0800608E7A37813F020027FF49EAE06
:10510000DF0638D522708CE6FFF78CFB23799A07EF
:1051100003D5A27842F00102A27023F006032371A6
:105120004FE741216AB21646A17089E7D9077FF59A
:105130009BAE43F00403E3729DE7A37843F00503BD
:10514000A370C3E703F08EF9022223782271202B8B
:105150007FF447AF6EB2002EFFF64EAFA37863F038
:105160007F03A37048E70822A370227003F090F930
:1051700002F0DEFD62E65E077FF560AE43F00803F5
:10518000A3705BE61A077FF546AF23F01C0343F0DC
:10519000020340E7A17841F04001C4E7F10F00208D
:1051A0002DE9F04F83B0FFF709F8002800F0E08206
:1051B000837CD0F830800193BA4E96F848309B0734
:1051C00000F1A7820025B84CA378002B00F09A804C
:1051D0006278002A40F09680DF071AD5217811F016
:1051E000C00000F0928013F0040B00F07C81802955
:1051F00000F0D282402900F06882180709D5DFF854
:10520000BCA29AF80910002900F0D581990740F155
:105210002782A64B1B7803F0FF0B002B40F08A80FF
:10522000A34F3B7803F0FF0B002B54D01BF0100F63
:1052300040F026811BF0010F40F075811BF0E80F54
:105240000CD02378980700F074814FFA8BF9B9F1EC
:10525000000FC0F29D81E82004F022F91BF0020F3C
:1052600019D01BF0680F13D12378402B00F048822F
:10527000002B40F0028200232371FEF79FFF20B134
:10528000A37813F0400300F07C820023A370237006
:10529000022004F005F91BF0040F1CD0237813F052
:1052A000D00F00F00D81E378002B40F0098194F9D4
:1052B0000230002BC0F2FD81FFF7B4FA23799F077B
:1052C00003D5A27842F00102A27023F00603042065
:1052D000237104F0E5F8774B1B7803F0FF0B002BEC
:1052E00036D1754B1B7803F0FF0B002B74D123785C
:1052F00013F0FC0F3FF468AF03F0CAF8A378002B5B
:105300007FF466AF03B0BDE8F08FE37A002B00F0C6
:10531000BA809F0740F1F780684B5B7A002B40F022
:10532000E9810023E372614B1B7803F0FF0B002B34
:105330003FF476AF012758460BF1FF3B277000F092
:105340005DFFBB4540F28181594F04F0BBF868E72F
:1053500004F0D4F81BF0010F18BF6423227A607A9E
:1053600008BF13461BF0020F1CBF0A33DBB21BF051
:10537000040F1CBF0A3BDBB21BF0080F1CBF01333C
:10538000DBB21BF0100F1CBF03F1FF33DBB2C82BE5
:1053900028BFC8230A2B38BF0A231BF0200F14BFD5
:1053A000642101461BF0400F18BF32211BF0800F13
:1053B00018BF19219A4201D1884292D0002223724B
:1053C00061722273FEF76AFFFFF72CFA3A4B1B78E3
:1053D00003F0FF0B002B8AD004F098F81BF0010FAC
:1053E00018BF6423A27A08BF13461BF0020F1CBF2C
:1053F0000A33DBB21BF0040F1CBF0A3BDBB21BF00D
:10540000080F1CBF0133DBB21BF0100F1CBF03F1F0
:10541000FF33DBB2C82B28BFC8230A2B38BF0A23AF
:105420009A4206D000212279A37242F00803237128
:1054300021731BF0200F237802D0102B00F04F8136
:105440001BF0C00F3FF454AF002B40F0D680DFF8C4
:105450006CA01BF0800F9AF8089040F0DA801BF0E7
:10546000400F06D019F0400F14BF09F0BF0949F0F2
:1054700040094846FCF724FB23788AF8089037E770
:1054800001236370A0E623791A077FF5C2AE019B62
:10549000414603F0300002F00BFB237923F00803B0
:1054A0002371B6E690110020DC0F00200C100020C4
:1054B000F10F0020D80F0020F00F0020540F002023
:1054C000A378180600F1F58013F0200200F0928016
:1054D000402203F07F0343F00103A37022700420F5
:1054E00003F0DEFFF7E62946584684F80BB002F0D9
:1054F000DFFA5846FCF7E4FAA37823F0020343F0FE
:105500000403A37085E613F00C0F3FF482AEBE4A8D
:10551000527A002A40F00D8119077FF502AF022070
:1055200003F0B4FFFDE601F0C3FB012003F0B8FF78
:1055300084E613F0280F7CD0A27812F0C00F70D050
:105540001BF0400F4FFA8BF902D0990640F15781BA
:105550001BF0080F03D013F0E00F00F0A7801BF042
:10556000200F3FF474AE062000F05EFEA3781A060A
:1055700007D42178402900F0F380802901D0402110
:10558000217043F02003B9F1000FA370BFF663AEA2
:105590002378012B00F0DD80802323705BE6019BE4
:1055A000414603F0300002F083FA01214FF08140C0
:1055B000FEF7E2FBA3789AF8082003F002017AB123
:1055C00000297FF426AE019B03F04000FCF778FA37
:1055D00001214FF07E50FEF7CFFBA37803F00201CC
:1055E00000297FF416AE43F010030220A37003F0ED
:1055F0004DFF0EE6A270227071E713F0180F3FF412
:1056000077AEDFF804A21BF0800F9AF808903FF401
:1056100026AF19F0800F14BF09F07F0949F0800907
:105620001DE702F01FFF022223782271202B00F0D9
:10563000DB80002B84D101221BF0400FA2704FFAB7
:105640008BF92FD04121A17082E7384600F0ECFDA4
:10565000102003F025FF6D4F3B78DB06FCD574E688
:1056600096F848108A079AD521799AF8080041F0EF
:10567000080222710028B6D0A5E7DA067FF508AE49
:10568000A278D2077FF504AE102B7FF4F4ADE37A55
:10569000002B3FF4F0AD43F008030220E37203F067
:1056A000FFFEF8E51BF0080F3FF459AF10232370FD
:1056B00055E700232371FEF73BFD02F093FDFCF755
:1056C00001FBFFF793F8A378FEE603F0E1FCA37873
:1056D00000287FF492AD03F0DF03A3708DE5E37A39
:1056E000DBB902231BF0C00FE3727FF4B0AE02F00F
:1056F000CFFE03E6294602F0DBF90123E37288E5D9
:10570000A37813F020027FF4C3ADD8065DD52270D4
:10571000B1E5202003F0E8FE54E5D90702D543F0B7
:105720000403E3721BF0C00F7FF491AE02F0B0FEF1
:10573000E4E50A2000F078FD96F8483098074BD54C
:105740002279E37A42F00802190722717FF5E9AD68
:10575000E5E6A37843F00503A370802323707AE580
:105760001F077FF50CAF23F01C0343F0020306E78D
:10577000254B5F7A1A7AD3F80C8047EA020301932B
:105780001AE50822A370227002F082FE02F0D0FA1D
:10579000022003F085FE7EE50B20019200F044FD1F
:1057A000019A0021104602F083F9019A1046FCF795
:1057B00087F902F0FDFA6378002B7FF4A3ADFFF7C1
:1057C00005FB6378002BFAD09CE559077FF560ADA7
:1057D00043F00803A3705BE5019B414603F03000F2
:1057E00002F066F9E37A97E64FFA8BF9B9F1000F08
:1057F000FFF6B5AEA37863F07F03A370AFE6A178A0
:1058000041F04001A170A3E6540F0020F10F0020E9
:10581000F8B5AB4B1B78002B56D1AA4CAA4D2B7870
:1058200003F0FF0593B3EE0600F1DD80E80700F119
:10583000F88015F0E80F0AD02378990700F0F78078
:105840006EB2002EC0F26981E82003F029FEAB079A
:1058500019D515F0680F13D12378402B00F075810E
:10586000002B40F0438100232371FEF7A7FC20B1F9
:10587000A37813F0400300F0A0810023A3702370ED
:10588000022003F00DFE690700F1B0808F4B1B78FA
:1058900003F0FF05002B6ED18D4B1B7803F0FF0545
:1058A00013BB237813F0FC0F05D1A37843B9F8BDDF
:1058B00015F0C00F4CD102F0EBFDA378002BF6D011
:1058C000BDE8F840FFF76CBC012603F0FF057D4CF6
:1058D0002846013D267000F091FCB54240F223813C
:1058E000794D03F0EFFD9AE703F010FEA27A15F070
:1058F000010F0CBF13466423A80744BF0A33DBB271
:10590000690744BF0A3BDBB22F0744BF0133DBB258
:10591000EE0644BF03F1FF33DBB2C82B28BFC82318
:105920000A2B38BF0A239A4206D000212279A3729B
:1059300042F0080323712173A806237802D5102BA7
:1059400000F0CA8015F0C00FACD0002B40F0E08012
:10595000604F2A063E7A00F1F180680605D571068F
:105960004CBF06F0BF0646F040063046FCF7A8F8EC
:1059700023783E7296E703F0C1FD217A15F0010FFE
:105980000CBF0B466423AE0744BF0A33DBB2680783
:1059900044BF0A3BDBB22F0744BF0133DBB2EE0644
:1059A00044BF03F1FF33DBB2C82B28BFC8230A2B47
:1059B00038BF0A23607A15F0200F14BF6422024614
:1059C00015F0400F18BF322215F0800F18BF1922B2
:1059D000994223D00021237262722173FEF75EFC8C
:1059E000FEF720FF58E7012363705EE7237813F08A
:1059F000D00F02D0E378002B51D0A3781F0652D4E9
:105A000013F0200236D0402203F07F0343F001035D
:105A1000A3702270042003F043FD37E79042D9D1F0
:105A20003AE701F045F9012003F03AFD01E713F0F0
:105A3000280F22D133BB0122A2706A0600F19B809D
:105A40002F076EB201D510232370A8067FF5F9AE9B
:105A5000062000F0E9FBA378190607D42278402A33
:105A600000F0BA80802A01D04022227043F0200347
:105A7000A370E6E6A2702270CCE7A27812F0C00F05
:105A800000F08A806AB26806164602D5990640F18F
:105A9000AB802F07D9D513F0E00FD6D1D3E794F917
:105AA0000230002B5ADA00232371FEF741FB02F08B
:105AB00099FBFCF707F9FEF799FEA378A0E700BF72
:105AC0000C100020DC0F0020F10F0020D80F002068
:105AD000F00F0020540F0020E37A002B50D1022356
